:03000000020003F8
:0C000300787FE4F6D8FD75812B02004ADE
:10015100011C000D0FFC60DAF266B6BEE0FEF6008F
:0B01610000000708FEFDFBF7EFDFFFCA
:0B01DF00EF1FAC0670011E4C70F622F2
:1000D9001201BBE527C4540F240FF8E6F51DE527E7
:1000E900540F240FF8E6F51EE526C4540F240FF823
:1000F900E6F51FE526540F240FF8E6F520E525C49B
:10010900540F240FF8E6F521E525540F240FF8E6DE
:03011900F52222AA
:10019900E4FD74082DF8E6F5A0741D2DF8E6F59038
:1001A9007F647E001201DFE4F590850FA00DBD0785
:0101B900E164
:0101BA002222
:0B01EA001201761200D912019980F872
:0E01D10081838587898B8D80828486888A8CC5
:09016C0007250000080101061935
:10011C00C28400C28200D28400E4FEEF139283EF0B
:10012C00C313FFD28200C282000EBE08EEE4FEEDC5
:10013C00139283EDC313FDD28200C282000EBE085F
:04014C00EEC284007B
:01015000228C
:10008F00C28400C28200D28400E4FDEF139283EF9A
:10009F00C313FFD28200C282000DBD08EE00E4FD43
:1000AF00A283E433FFC43333335480FCEEC3134CC9
:1000BF00FED28200C282000DBD08E5C28400D2824A
:0900CF0000C28300D28300AF06D9
:0100D8002205
:10017600E4FD7F8E12011CE4FCEC9001D893FF7421
:10018600252CF8E6FD12011C0CBC07ED7D807F8E48
:0301960002011C47
:1001BB00E4FBEB9001D193FF12008F74252BF8A673
:0501CB00070BBB07ED6E
:0101D000220C
:10000F000201EAE493A3F8E493A34003F68001F21C
:10001F0008DFF48029E493A3F85407240CC8C333F2
:10002F00C4540F4420C8834004F456800146F6DFC1
:10003F00E4800B0102040810204080900151E47EFF
:10004F00019360BCA3FF543F30E509541FFEE493B6
:10005F00A360010ECF54C025E060A840B8E493A37D
:10006F00FAE493A3F8E493A3C8C582C8CAC583CAA8
:10007F00F0A3C8C582C8CAC583CADFE9DEE780BE60
:010175000089
:00000001FF
